:020000040000FA
:10000000100B0020B5010000D50F0000910E00007C
:1000100000000000000000000000000000000000E0
:10002000000000000000000000000000D90F0000E8
:100030000000000000000000D70F0000DB0F0000F0
:10004000D9010000D9010000D9010000D901000048
:10005000D9010000D9010000D9010000D901000038
:10006000D9010000D9010000D9010000D901000028
:10007000D9010000D9010000D9010000D901000018
:10008000D9010000D9010000D9010000D901000008
:10009000D9010000D9010000D9010000D9010000F8
:1000A000D9010000D9010000D9010000D9010000E8
:1000B000D9010000D9010000D9010000D9010000D8
:1000C00000F002F800F046F80CA030C808382418F8
:1000D0002D18A246671EAB4654465D46AC4201D180
:1000E00000F038F87E460F3E0FCCB646012633426C
:1000F00000D0FB1AA246AB4633431847E824000061
:1001000008250000103A02D378C878C1FAD85207FF
:1001100001D330C830C101D504680C6070470000BD
:100120000023002400250026103A01D378C1FBD813
:10013000520700D330C100D50B60704710B5752948
:1001400002D100F0AFF810BD002010BD1FB51FBDDB
:1001500010B510BD00F0D9FA1146FFF7F7FF02F015
:100160000DF900F0F1FA03B4FFF7F2FF03BC02F05F
:10017000D9F8000080F308887047000070B5054684
:100180000C46164602E00FCC0FC5103E102EFAD2D8
:10019000082E02D303CC03C5083E042E07D301CC9E
:1001A00001C5361F03E021782970641C6D1C761E82
:1001B000F9D270BD0C480D4A002100A1814200D93E
:1001C00002440B4802600B4880470B480047FEE79B
:1001D000FEE7FEE7FEE7FEE7FEE700000748084906
:1001E000084A094B70470000000000200000000092
:1001F00008ED00E0AD140000C10000001007002071
:10020000100B00201009002010090020704700008A
:100210000FB41CB5074B06AA7B44694600900598AD
:1002200000F02DFA0020694600F03CFA1CBC08BC26
:1002300004B0184789040000F8B50E4604460020B3
:1002400020622046E1688847002829D0252802D06E
:100250006268A16820E0E168204600278847050021
:100260001ED028464138192802D80127FF02203520
:100270003246204627602946FFF760FF002808D055
:10028000012804D0F61DF608F6000836D9E7361D19
:10029000D7E762682846A1689047206A401CCFE7EC
:1002A000206AF8BDF7B5002575291068009914A6D5
:1002B00011D0C046C046002802DA404211A608E02C
:1002C000009909688A0701D50FA602E0490704D5FD
:1002D0000EA6012501E0C046C046009F0024243739
:1002E00004E000F0F8F930313955641C0028F8D1E9
:1002F0002B4632462146009800F063F9FEBD00000F
:10030000000000002D0000002B0000002000000075
:100310000EB5044615460E4612A000F0D2F920464E
:1003200000F0CFF915A000F0CCF9304600F0C9F983
:1003300014A000F0C6F96C460020E0720A20A072FA
:100340000A3407E00A21284600F094F830310546C7
:10035000641E2170002DF5DC204600F0B2F900F09B
:10036000A6F900002A2A2A20617373657274696FE6
:100370006E206661696C65643A2000002C20666915
:100380006C6520002C206C696E652000F8B5042A8D
:100390002CD3830712D00B78491C0370401C521ECB
:1003A00083070BD00B78491C0370401C521E830737
:1003B00004D00B78491C0370401C521E8B079B0F06
:1003C00005D0C91ADF002023DE1B08C90AE0FFF7A9
:1003D000D5FEF8BD1D4608C9FD401C46B4402C435F
:1003E00010C0121F042AF5D2F308C91A521EF0D405
:1003F0000B78491C0370401C521EEAD40B78491C30
:100400000370401C012AE4D409780170F8BDD2B20F
:1004100010B513029A1813049A1800F00EF810BDC4
:1004200001E004C0091F0429FBD28B0701D502801B
:10043000801CC90700D00270704700290BD0C30789
:1004400002D00270401C491E022904D3830702D542
:100450000280801C891EE3E70022EEE70022DFE72E
:10046000002203098B422CD3030A8B4211D30023B1
:100470009C464EE003460B433CD4002243088B428B
:1004800031D303098B421CD3030A8B4201D3944618
:100490003FE0C3098B4201D3CB01C01A524183090B
:1004A0008B4201D38B01C01A524143098B4201D3C5
:1004B0004B01C01A524103098B4201D30B01C01AF0
:1004C0005241C3088B4201D3CB00C01A524183086A
:1004D0008B4201D38B00C01A524143088B4201D397
:1004E0004B00C01A5241411A00D2014652411046F7
:1004F00070475DE0CA0F00D04942031000D340426C
:10050000534000229C4603098B422DD3030A8B42A1
:1005100012D3FC22890112BA030A8B420CD389013F
:1005200092118B4208D3890192118B4204D3890125
:100530003AD0921100E08909C3098B4201D3CB0163
:10054000C01A524183098B4201D38B01C01A524118
:1005500043098B4201D34B01C01A524103098B421C
:1005600001D30B01C01A5241C3088B4201D3CB0007
:10057000C01A524183088B4201D38B00C01A5241EA
:10058000D9D243088B4201D34B00C01A5241411AC1
:1005900000D20146634652415B10104601D34042EF
:1005A000002B00D54942704763465B1000D34042A0
:1005B00001B50020C046C04602BD70477047704775
:1005C0007047FFB504460D4681B024300090216885
:1005D000880604D51022E0699143216000E00120E3
:1005E000A84201DD471B00E000270498A1697A19A1
:1005F0001018081AA0612078C00602D42046C04610
:10060000C046002608E003986268A168805D9047B4
:10061000206A401C761C206204988642F3DB207816
:10062000C0060AD52046C046C04606E06268A168FA
:1006300030209047206A401C206238467F1E0028E8
:10064000F4DC07E000986268A168405D9047206A8A
:10065000401C206228466D1E0028F3DC2046C04660
:10066000C0462078000602D5022005B0F0BD01206A
:10067000FBE7000001694A1C02610878704700B579
:100680008FB00291002105910549019379440391AE
:10069000114604906846FFF7CFFD0FB000BD000083
:1006A000E5FFFFFF0A681070521C0A60704710B522
:1006B000002000F024F8FFF74BFD012001F032FE8E
:1006C00010BD10B5044602E0641C01F02DFE207838
:1006D0000028F9D110BD01468008081A0209101837
:1006E000020A1018020C1018C008820012185200DA
:1006F000891A01E0401C0A390A29FBD2704710B55B
:1007000000F030F800F028F810BD754600F042F80F
:10071000AE46050069465346C008C000854618B07D
:1007200020B5FFF75BFD60BC00274908B6460026F0
:10073000C0C5C0C5C0C5C0C5C0C5C0C5C0C5C0C591
:10074000403D49008D46704710B50446C046C0463E
:100750002046FFF708FD10BD10B5002801D001F0BC
:10076000E1FD10BD10B5002102A000F017F8012036
:1007700010BD0000534947414252543A2041626E35
:100780006F726D616C207465726D696E6174696FF2
:100790006E00000000487047AC06002070B50546AA
:1007A0000C460A2000E06D1C01F0BEFD002D06D0B5
:1007B00028780028F7D102E0641C01F0B5FD002C78
:1007C00002D020780028F7D10A2001F0ADFD70BDDD
:1007D00010B5044603480068002802D001480068AC
:1007E000804710BD0000002010B50446204600F0F0
:1007F000BBF810BDFEB505460E461746680A400216
:10080000019000240AE030190090009801680198D6
:1008100000F00BF80198001D0190241DBC42F2D39A
:10082000FEBD01460A461078704770B504460D4675
:10083000A0088000294600F04DF970BDF0B58BB0DE
:1008400006460C4617460025FF200A900020099016
:10085000202101A8FFF702FE3E480090012C0ED097
:10086000022C0CD0042C0AD0062C08D0082C06D060
:100870000C2C04D00420099009980BB0F0BD364828
:1008800006603448006A0121490288437902012246
:100890005202114008432F490862002507E0A800D2
:1008A0002E4908586043A90001AA50506D1C082D1C
:1008B000F5D3082C0CD12A482649C8622948C862B9
:1008C0000846006A0C218843001D224908621BE08B
:1008D0000C2C0ED1FF20029021481E49C8622148ED
:1008E000C8620846006A0C218843001D1949086245
:1008F0000AE01B481749C8621A48C8620846006ADD
:100900000C2188431349086200251EE0FF200A904D
:1009100012E00A98411E0A9100280BD010480D4998
:10092000C8621048C862A80001A90958AA00009826
:10093000815001E00720A0E7A90000984058A900D5
:1009400001AA51588842E4D16D1C082DDED30998C4
:1009500093E700000000024000000020F0240000A7
:100960005A5A0000A5A5000008B501460022FF2044
:1009700000903A48814202D90422104608BDFF2067
:10098000009006E00098431E0093002801D1092042
:10099000F4E73348006AC006C00F0028F2D1FF20F8
:1009A000009012E00098431E009300280BD02D48C1
:1009B0002B4BD8622C48D8621846006A8008800009
:1009C000801C186201E00920D8E72548006A8007EA
:1009D000800F0228E6D1FF2000900FE00098431E10
:1009E0000093002808D01F481D4BD8621E48D862CB
:1009F0000020C043186301E00920BFE71848006BDE
:100A00000023DB439842E9D100200870FF200090CA
:100A100006E00098431E0093002801D10920ADE7AD
:100A20000F48006AC006C00F0028F2D1FF200090D6
:100A30000EE00098431E0093002807D00948084B99
:100A4000D8620948D8620020186301E0092095E7C0
:100A50000348006B0028ECD110468FE7FFFF000031
:100A6000000002405A5A0000A5A5000001460020DF
:100A7000144A126A520052080123DB07D218114BA4
:100A80001A62114A114BDA62114ADA62002906D160
:100A90001A46126A0C239A430C4B1A6210E0012981
:100AA00007D10A4A126A0C239A43121D074B1A6295
:100AB00006E0064A126A0C239A430832034B1A6274
:100AC00070470000002000405A5A00000000024019
:100AD000A5A5000018B502460023FF2000903A4863
:100AE000824202D90423184618BDFF20009006E078
:100AF0000098441E0094002801D10920F4E73348EF
:100B0000006AC006C00F0028F2D1FF20009012E05A
:100B10000098441E009400280BD02D482B4CE06216
:100B20002C48E0622046006A80088000401C206259
:100B300001E00920D8E72548006A8007800F0128D6
:100B4000E6D1FF2000900FE00098441E009400289A
:100B500008D01F481D4CE0621E48E0620020C043E0
:100B6000206301E00920BFE71848006B0024E4433C
:100B7000A042E9D11160FF20009006E00098441ED9
:100B80000094002801D10920AEE71048006AC00691
:100B9000C00F0028F2D1FF2000900EE00098441E04
:100BA0000094002807D00A48084CE0620948E06237
:100BB0000020206301E0092096E70448006B00282C
:100BC000ECD1184690E70000FFFF00000000024053
:100BD0005A5A0000A5A500000246054810184069B1
:100BE00001238B401843024BD318586100207047F3
:100BF000000D02400246034810184068C840C00774
:100C0000C00F7047000D024030B503464E4818181B
:100C1000C06801248C40A0434B4C1C19E0600020AC
:100C20004A4C1C198D0060511078012809D14648A2
:100C30001818006801248C402043434C1C19206084
:100C400008E041481818006801248C40A0433E4C3D
:100C50001C1920605078002809D13B481818C06939
:100C600001248C40A043384C1C19E06108E0364850
:100C70001818C06901248C402043334C1C19E061D2
:100C80009078012812D130481818006A01248C404D
:100C900020432D4C1C1920622B481818406A01244F
:100CA0008C40A043284C1C19606227E090780228F1
:100CB00012D125481818006A01248C40A043224C08
:100CC0001C19206220481818406A01248C402043D7
:100CD0001D4C1C19606211E01B481818006A0124A1
:100CE0008C40A043184C1C19206217481818446AFD
:100CF000012088408443144818184462D0780028A2
:100D000009D111481818C06A01248C40A0430E4C28
:100D10001C19E06208E00C481818C06A01248C40D5
:100D20002043094C1C19E062094880680124E4034F
:100D3000A0431479E4030125ED032C402043044C27
:100D4000A060002030BD0000000D0240000C0240F9
:100D5000000F024010B50346024818188C000251DB
:100D6000002010BD000C0240024605481018006922
:100D700001238B401843024BD318186100207047A1
:100D8000000D024001480068704700003C00002050
:100D90001CB50521684601F0C8FA01211C2000F0AD
:100DA000F5FA0021684601704170C170012181701F
:100DB0006A460521C020FFF727FF01216846017020
:100DC00041700021C170012181706A460421C02058
:100DD000FFF71AFF1CBD1FB501F02AFA1021684663
:100DE00001F0A3FA012168460170E1204002019060
:100DF0000021684641708170C1706946002000F092
:100E000077FC1FBD70B50446FFF7BCFF054606E042
:100E1000FFF7B8FF401B022801D9012070BD012057
:100E200080070069C007C00F0028F1D001208007AB
:100E300000682070012080074069400840000121BF
:100E4000890748610020E9E70121890749690222F1
:100E50009143520751611146086000BF0121890783
:100E600009698907C90F0029F8D001218907496953
:100E70000222914352075161704700B5034603E0D7
:100E800018785B1CFFF7E0FF18780028F8D100BD48
:100E900000BFFEE710B50020C046C04610BD10B52B
:100EA0000120C046C04610BD10B50220C046C04655
:100EB00010BD10B50320C046C04610BD10B50020BF
:100EC000C046C04610BD10B50020C046C04610BD8B
:100ED00010B5002000F0B2FB10BD10B5012000F0ED
:100EE000ADFB10BD10B50020C046C04610BD10B50A
:100EF0000120C046C04610BD10B50020C046C04607
:100F000010BD10B50120C046C04610BD10B5002070
:100F1000C046C04610BD10B50120C046C04610BD39
:100F200010B50020C046C04610BD10B50120C04617
:100F3000C04610BD10B50220C046C04610BD10B559
:100F40000020C046C04610BD10B50420C046C046B3
:100F500010BD10B50520C046C04610BD10B5062016
:100F6000C046C04610BD10B50020C046C04610BDEA
:100F700010B50020C046C04610BD10B50020C046C8
:100F8000C04610BD10B50020C046C04610BD10B50B
:100F90000020C046C04610BD10B50020C046C04667
:100FA00010BD10B50120C046C04610BD10B50020D0
:100FB000C046C04610BD10B50020C046C04610BD9A
:100FC00010B50020FFF704FC10BD10B50020C0468E
:100FD000C04610BD70477047704710B500F002F86A
:100FE00010BD000002480068401C014908607047BD
:100FF0003C00002010B501F057FA7D21C9000C48D3
:101000000068FFF72DFA0446601E0A49884200D99D
:101010000CE0601E084948610321081F01F046F9F1
:101020000020054988610720086100BF10BD00004D
:1010300040000020FFFFFF0000E000E0F8B506469A
:101040000C4600250027002C01D0012000E00020E4
:10105000044601F0E1F8330001F019F905041E4DD2
:10106000689CB7005B48006840084000E107C90F72
:1010700008435849086005E06D1C5748854201D176
:10108000092707E0002C05D05248C0680005C00FB2
:101090000028F1D000BF9AE05048C06840084000E6
:1010A000401C4E49C8604B4840688007C00F00286C
:1010B00006D10846C06802218843801C4749C860A1
:1010C000444800680221884361000222114008431D
:1010D0004049086005E06D1C3F48854201D1092761
:1010E00007E0002C05D03B4800694006C00F0028EF
:1010F000F1D000BF6BE03748006804218843A100AD
:101100000422114008433349086005E06D1C324851
:10111000854201D1092707E0002C05D02D48406900
:10112000C004C00F0028F1D000BF50E02B48403869
:10113000C068012189038843401828494039C860A4
:10114000244840688007C00F002808D10846C068BE
:101150000121C9038843401820494039C8601D480F
:10116000006808218843E10008221140084319491A
:10117000086005E06D1C1848854201D1092707E089
:10118000002C05D0134880694006C00F0028F1D01C
:1011900000BF1CE00F480068102188432101102285
:1011A000114008430B49086005E06D1C0A48854260
:1011B00001D1092707E0002C05D00648C06B400389
:1011C000C00F0028F1D000BF01E0042700BF00BF1E
:1011D0003846F8BD0020004040420F00C00D0240DC
:1011E00070B58AB0044600251422524905A8FEF7BE
:1011F000C5FF504814300068049000200190029010
:1012000003904D480188684681814B484188684673
:10121000418149488188684601814748C1886846BC
:10122000C180454820300188684681802646344682
:10123000330001F02CF805042E303E4178003F4881
:10124000C0684005400D69468989884201D1099DE1
:101250001EE03A48C0684005400D69464989884209
:1012600001D1089D14E03548C0684005400D69462D
:101270000989884201D1079D0AE03048C0684005CD
:10128000400D6946C988884201D1069D00E0059D50
:101290004BE02B4D49E0684680882849496989051B
:1012A000890D884202D16846458A01E06846058A70
:1012B0003BE00125ED0338E02048C06B8007800F3C
:1012C000032829D1684680891C49C9684905490D08
:1012D000884201D1099D20E0684640891749C968C4
:1012E0004905490D884201D1089D16E068460089EC
:1012F0001249C9684905490D884201D1079D0CE092
:101300006846C0880D49C9684905490D884201D120
:10131000069D02E0059D00E0094D0848C06BC00530
:10132000000F454301E0002500BF00BF28460AB07A
:1013300070BD000010250000000C100000200040CF
:101340000048E80170B50024074800680006450F12
:101350002846FFF745FF044909684905490FC84079
:101360000446204670BD00000020004010B5002457
:10137000FFF7E8FF044604480068C004810F2046D8
:10138000C8400446204610BD0020004010B502466B
:101390000020002901D0012300E000231946002984
:1013A00007D0084B1B6A012494402343054C236259
:1013B00006E0044B1B6A01249440A343014C2362C2
:1013C00010BD00000020004010B5014600200B00B9
:1013D00000F05DFF0504101C28344000204B1B89E1
:1013E0005A05520D1F4BDB68DB0ADB0213431D4C11
:1013F000E36031E01A4BDB885A05520D194BDB686C
:10140000DB0ADB021343174CE36025E0144B9B8897
:101410005A05520D134BDB68DB0ADB021343114CF8
:10142000E36019E00E4B5B885A05520D0D4BDB68EB
:10143000DB0ADB0213430B4CE3600DE0084B1B8817
:101440005A05520D074BDB68DB0ADB021343054CE0
:10145000E36001E0042010BD00BF00BFFBE7000017
:10146000000C10000020004070B504460025264600
:1014700000F0D2FE07480068E02188437101E022B5
:101480001140084303490860FFF75CFF0249086008
:10149000284670BD0020004040000020014802495D
:1014A0000860704700093D004000002000B5074972
:1014B00009894805400D0649C968C90AC90201439E
:1014C000034AD160FFF7EAFF00BD0000000C1000E6
:1014D0000020004070477047704770477047704762
:1014E000704770477047704710B5024600200021D2
:1014F00000BF0BE01C234B43064CE358934203D13F
:101500001C234B43181903E04B1CD9B20229F1D319
:1015100000BF10BD0400002070B506460D46002433
:1015200000BF002E01D0012E01D1012000E00020DB
:10153000002800D005E0FF22E0322BA130A0FEF70A
:10154000E7FE00BF00BF002D0BD0012D09D0022DFA
:1015500007D0032D05D0052D03D0062D01D0042D75
:1015600001D1012000E00020002800D005E0FF228A
:10157000E1321DA13048FEF7CBFE00BF3046FFF739
:10158000B3FF0446002C01D1042070BD2B0000F0F5
:101590007EFE05040B121920270060684069202197
:1015A0008843616848611CE0606840694008400009
:1015B0006168486115E0606840690221884361689C
:1015C00048610EE0606840691021884361684861A5
:1015D00007E060684069042188436168486100E071
:1015E00000BF00BF0020D0E72E2E5C6472697665D4
:1015F000725C7372635C756172742E63000000002C
:1016000028282855415254434830203D3D20287514
:10161000384964782929207C7C202855415254433C
:101620004831203D3D2028753849647829292929E9
:101630003E203075000000002825000070B50546EA
:1016400000242846FFF750FF0446002C00D170BD4F
:10165000606800694007C00F002809D004212846AF
:10166000FFF75AFFE068002801D0E0688047EEE706
:1016700060680069C006C00F002809D00321284611
:10168000FFF74AFFA069002801D0A0698047DEE784
:10169000606800698006C00F002808D00021284635
:1016A000FFF73AFF6069002801D0606980476068F1
:1016B0000069C007C00F002808D001212846FFF7A5
:1016C0002BFF2069002801D02069804760680069ED
:1016D0008007C00F002808D002212846FFF71CFF12
:1016E000A068002801D0A068804700BFAFE70000D5
:1016F000FEB507460D4601200190002400BF002FD3
:1017000001D0012F01D1012000E00020002800D0ED
:1017100005E09F22920053A158A0FEF7F9FD00BFFB
:101720003846FFF7E1FE0446002C01D10420FEBD3F
:10173000002D01D10420FAE760684068C021884389
:1017400029788901C02211400843616848606068B7
:101750004068012149028843697849020122520206
:101760001140084361684860606840680C21884304
:10177000A97889000C2211400843616848606068BC
:10178000406811038843E978890312031140084334
:101790006168486060684068102188431030616863
:1017A00048602878002806D001280DD0022828D0CB
:1017B000032835D109E0FFF7D9FD0C210090FEF791
:1017C0004FFE06466E602DE000BF606840688005F1
:1017D000C00F002809D1FFF7C9FD0090686801011A
:1017E0000098FEF73DFE064608E0FFF7BFFD0090BB
:1017F0006868C1000098FEF733FE0646606886619F
:1018000010E0606840688005C00F002803D1FFF732
:10181000ADFD460902E0FFF7A9FD06096E6001E093
:10182000042084E700BF0020616848613846A96849
:1018300000F040F86068406820218843297B490116
:1018400020221140084361684860287B012805D1A7
:10185000687B61688860A87B6168C860002001902F
:10186000019864E72E2E5C6472697665725C73720F
:10187000635C756172742E6300000000282828558F
:10188000415254434830203D3D2028753849647802
:101890002929207C7C202855415254434831203D41
:1018A0003D20287538496478292929293E2030753A
:1018B0000000000070B506460D46002400BF002E53
:1018C00001D0012E01D1012000E00020002800D02D
:1018D00004E0C02241A147A0FEF71AFD00BF304638
:1018E000FFF702FE0446002C01D1042070BDE8077A
:1018F000C00F002807D06068406802218843801C20
:101900006168486005E0606840680221884361685A
:10191000486002202840002807D0606840684008DE
:101920004000401C6168486005E06068406840080D
:1019300040006168486004202840002808D06068A2
:10194000406801214905884340186168486006E005
:101950006068406801214905884361684860082043
:101960002840002808D060684068012109058843A4
:1019700040186168486006E0606840680121090518
:1019800088436168486010202840002808D06068BB
:10199000406801214903884340186168486006E0B7
:1019A00060684068012149038843616848602020DD
:1019B0002840002808D060684068FF210131884332
:1019C00040186168486006E060684068FF210131A6
:1019D000884361684860002088E700002E2E5C6420
:1019E00072697665725C7372635C756172742E6382
:1019F0000000000028282855415254434830203D1B
:101A00003D202875384964782929207C7C20285578
:101A1000415254434831203D3D202875384964786F
:101A2000292929293E2030750000000070B50446A0
:101A300014480068FEF7D8FE0521C020FFF794F98E
:101A40000122520221460F480068FEF7D3FE00250E
:101A50000DE00C4908680968491C0A4B1960FEF73B
:101A6000E0FE615D884201D0012070BD6D1C012047
:101A700040028542EDD30521C020FFF7ADF80020DC
:101A8000F3E700004800002070B506460C46002C25
:101A90001FD015480068FEF7A7FE0521C020FFF7FC
:101AA00063F92246314610480068FEF7A3FE002580
:101AB0000DE00D4908680968491C0B4B1960FEF7D9
:101AC000B0FE715D884201D0012070BD6D1CA54241
:101AD000EFD306490648FEF7A8FE0521C020FFF710
:101AE0007BF80020F1E70000480000205AA555AA25
:101AF000FC3F000070B505460C46012080030849F4
:101B0000086005204003844201D9012070BD0548CA
:101B1000FEF76AFE0521C020FFF726F90020F5E751
:101B200048000020FC3F000070B502460C46002033
:101B300016E015782B0200210FE005465D400126D6
:101B4000F6033540002D04D04500084E7540284668
:101B500000E040005B004D1CE9B20829EDDB521C9F
:101B60002546641E002DE4D170BD00002110000048
:101B7000FFB514461F460126B602B74200D300E067
:101B800080263246974201D23E4600E01646334652
:101B90000126B602B24202D102260E7001E00126F1
:101BA0000E704C70E6438E70009D032003E02E788B
:101BB0000E546D1C401CDE1CB042F8D3934207D873
:101BC000D81C02E01A260E54401CD61CB042F9D391
:101BD000FFBD0000F8B504460E46174601202070F0
:101BE00000206070FF20A0708021E01CFEF734FC14
:101BF000002503E0715DE81C21546D1C705D002818
:101C000001D0402DF6D30021E81C21546119081D94
:101C10003A4602A1FEF7FCFAF8BD00002575000067
:101C20000122027000224270FF228270032102E032
:101C300000224254491C8329FAD37047F3B585B07A
:101C400000210698016000270020049003900025E1
:101C500005980190FF22012149020198FEF7D7FB68
:101C6000F3E07D22D20002A9784800F009F9C01CF7
:101C700000286ED001286DD002286CD003286BD1CB
:101C8000002004900298002867D07048407803999B
:101C9000C9B2884203D0152000F055F9B0E003988E
:101CA00000285BD16948C07800284DD00026674CD9
:101CB000E41C0EE0102E06D222783046761C6449D1
:101CC0000A54641C05E000223046761C60490A5420
:101CD000641C2078002801D0402EEBD3002230462F
:101CE000761C5B490A540026641C05E022783046C5
:101CF000761C58490A54641C2078202801D0102EE4
:101D0000F4D300223046761C52490A54084600F0AB
:101D1000D7FB07460698076039464D48FFF7EAFEAD
:101D2000002809D0182000F00EF9182000F00BF957
:101D30000020C04307B0F0BD0027062000F003F9E3
:101D4000432000F000F94DE0062000F0FCF80020F0
:101D5000F0E75FE055E062E076E047E03B4CE41CF2
:101D60003AE001204002401B029988422AD8012112
:101D700049024A1B019948192146FEF707FB012039
:101D80004002401B241801204002401B0299081AFF
:101D900002900198FFF74AFE002808D0182000F0B2
:101DA000D2F8182000F0CFF80120C043C2E7FF3777
:101DB000FF3702370025FF22012149020198FEF773
:101DC00026FB09E0019948192146029AFEF7DEFA3E
:101DD00002982D180020029002980028C1D10620F8
:101DE00000F0B1F80398401C039009E0062000F0D1
:101DF000AAF829460198FFF747FE7F19384699E768
:101E000022E0182000F09FF8182000F09CF8022033
:101E1000C0438FE7062000F096F800208AE7039879
:101E200000280DD00498401C04900498052807D978
:101E3000182000F088F8182000F085F8002079E7D5
:101E4000432000F080F800BF00BF0AE7A402002092
:101E5000540200209402002038B504460D4609E0E3
:101E60006846FEF7CFFF002804D16846007820704E
:101E7000002038BD28466D1E0028F1D10120F8E76A
:101E8000F7B582B004460F460020386001A80499D7
:101E9000FFF7E2FF002803D00020C04305B0F0BDEB
:101EA00068460079182813D006DC012809D00228DA
:101EB00009D0042820D109E0412819D061281BD17C
:101EC00017E080251BE00125AD0218E00020E5E7C2
:101ED00001A80499FFF7C0FF002806D168460079E1
:101EE000182802D10220C043D8E70020C043D5E71C
:101EF00000BF0120C043D1E70020C043CEE700BFB0
:101F0000684600792070012609E0A0190499FFF7BE
:101F1000A3FF002802D00020C043BFE7761C681D45
:101F20008642F2D36178A078FF225040814202D0ED
:101F30000020C043B2E72946E01CFFF7F5FD064646
:101F40003D600020AAE710B504462046FEF77CFF5E
:101F500010BD70B504460D46002604E03146761CDF
:101F6000605CFFF7F0FFAE42F8D370BDF8B50746EE
:101F70000D46164600243146284600F0A7F80446D0
:101F8000002C01D02046F8BD3146384600F01CF840
:101F90000446002C01D02046F5E700F073F8044613
:101FA000002C01D02046EEE700F008F90446002C92
:101FB00001D02046E7E700F0CBF80446002C01D022
:101FC0002046E0E70020DEE7F3B585B00E460120AD
:101FD0000190059F35464EE0002004902B4628498D
:101FE0003846019AFFF7C4FD00BF012080028542F8
:101FF00001D3044600E08024E11C2148FFF7A9FF3B
:1020000021461F48C01CFFF78FFD0290029909046A
:10201000080EFFF798FF0299C8B2FFF794FF00215E
:1020200003917D21C90003A8FFF716FF6846007BD6
:10203000062814D1A5420FD93F192D1BB00AC01C88
:102040000199884203D10020C04307B0F0BD019838
:10205000401CC0B2019001E03F1900250AE004983D
:10206000401CC0B2049004980A2802DB0020C04340
:10207000EBE7BAE700BF002DAED10020E5E7000096
:10208000A402002038B5002500200090002400BFE5
:102090000420FFF758FF7D21C9006846FFF7DCFEEA
:1020A000002805D168460078152801D1012501E0F6
:1020B000601CC4B2002D01D10A2CE9DB0A2C02DB22
:1020C0000020C04338BD0020FCE70000FEB50546F7
:1020D0000E460027002101910091324629461B48F7
:1020E000FFF778FD00BF83211848FFF732FF8021FA
:1020F0001648C01CFFF718FD04462104080EFFF720
:1021000022FFE0B2FFF71FFF7D21C90001A8FFF702
:10211000A3FE00280FD16846007906280BD17D2147
:10212000C9006846FFF798FE002804D16846007889
:10213000432800D107E0781CC7B20A2F02DB002039
:10214000C043FEBDCFE700BF0020FAE7A402002095
:10215000F8B500260020009000241748FFF760FD26
:1021600000BF83211448FFF7F4FE80211248C01CF1
:10217000FFF7DAFC05462904080EFFF7E4FEE8B293
:10218000FFF7E1FE7D21C9006846FFF765FE0028E4
:1021900005D168460078062801D1012601E0601CBF
:1021A000C4B2002E01D10A2CDBDB0A2C02DB00209A
:1021B000C043F8BD0020FCE7A402002038B500258C
:1021C00000200090002400BF0420FFF7BCFE7D210A
:1021D000C9006846FFF740FE002810D16846007825
:1021E00006280CD17D21C9006846FFF735FE00287E
:1021F00005D168460078432801D1012501E0601C23
:10220000C4B2002D01D10A2CDEDB0A2C02DB002037
:10221000C04338BD0020FCE70248034988600348FA
:10222000886070475A5A000000200040A5A50000B1
:102230001CB501211C20FFF7A9F801210020FFF7A0
:10224000A5F80521684600F070F800216846017085
:102250004170C170012181706A4609210020FEF79A
:10226000D3FC012209210020FEF774FD01216846FC
:1022700001704170C17081706A460A210020FEF72A
:10228000C3FC01220A210020FEF764FD1CBD30B40E
:102290007446641E2578641CAB4204D3635D5B0006
:1022A000E31830BC18471D46F8E7000010B50028B9
:1022B00019DB1A4A03231B02D21883089B00D25849
:1022C0008307DC0EFF23A3409A438B071B0E840772
:1022D000E40EA3401A43114B032424021B19840863
:1022E000A4001A5118E00E4A03071B0F083B9B0875
:1022F0009B00D2588307DC0EFF23A3409A438B0731
:102300001B0E8407E40EA3401A43054B0407240F59
:10231000083CA408A4001A5110BD000000E100E030
:102320001CED00E000BF7047704710B50A4601463B
:10233000002900D110BD02E000230B70491C134698
:10234000521E002BF8D100BFF4E7000010B5044680
:1023500020680849084001214907884208D160687F
:10236000054908602068FDF705FF034800688047BD
:1023700010BD00000000FE2F4C0000201CB5FEF731
:1023800007FD0421C020FEF735FC002803D0012002
:102390008003FFF7DBFF002208211046FEF74EFA0C
:1023A0000120FEF763FBFEF725FEFEF7CBFF1F497A
:1023B0000860FEF7EDFCFEF70EFD62B61CA0FEF70E
:1023C0005CFD24A0FEF759FD314804682CE030483C
:1023D0000068001B7D21C900884207D92C48046889
:1023E0002C488068202148402A4988606846FEF7CA
:1023F00009FD002818D168460078522804D101A9A7
:102400002548FFF71BFC0FE068460078532807D1EA
:102410000522520321A101208003FFF7A7FD03E05D
:1024200068460078FEF710FDD1E700004400002068
:102430000D0A596D6F64656D2831323842797465C3
:1024400029205570646174652053746172742E0D77
:102450000A000000436F6E736F6C6520696E7075C3
:10246000742063686172202752272C207468656E7F
:102470002073656E64207468652062696E206669E9
:102480006C6520746F204D43552E0D0A000000002E
:102490003C000020C00D02405000002075736572A2
:1024A0002E62696E0000000010B50420FEF78CFF5C
:1024B0000020FEF7D9FF01210220FEF7BFFD10BD6D
:1024C00010B50146002000220DE08B5C302B08DBAC
:1024D0008B5C392B05DC0A2343438C5C303C181998
:1024E00000E003E0521C8B5C002BEED100BF10BD5E
:1024F00020000000170000001B00000050460000F4
:10250000E022020018000000F0000000E8030000D4
:1025100000093D0000127A000024F40040865101B9
:1025200000366E0100800096282828556172744399
:102530007473203D3D2028656E5374617475732952
:10254000297C7C2028556172745243203D3D20280F
:10255000656E53746174757329297C7C20285561DC
:1025600072745443203D3D2028656E537461747528
:102570007329297C7C2028556172745045203D3D8B
:102580002028656E53746174757329297C7C20281A
:10259000556172744374734966203D3D2028656E11
:1025A00053746174757329297C7C20285561727479
:1025B000547865203D3D2028656E537461747573B1
:1025C00029297C7C2028556172744645203D3D2098
:1025D00028656E537461747573292929293E20304A
:1025E00075000000042600000000002050000000DC
:1025F000040100005426000050000020C00A000022
:102600002001000000000000000000000000004069
:10261000DD140000D9140000DB140000D514000004
:10262000D71400000100000000010040E714000082
:10263000E3140000E5140000DF140000E1140000C2
:10264000000000000000000000000000000000008A
:042650000000000086
:04000005000000C136
:00000001FF
